:020000040800F2
:1000000000000220BD590008C9580008D558000852
:10001000DD580008E5580008ED5800080000000011
:10002000000000000000000000000000F55800087B
:1000300001590008000000000D5900081959000876
:100040000D5A00080D5A00080D5A00080D5A0008F4
:100050000D5A00080D5A00080D5A00080D5A0008E4
:100060000D5A00080D5A00080D5A00080D5A0008D4
:100070000D5A00080D5A0008255900080D5A0008AD
:100080000D5A00080D5A00080D5A00080D5A0008B4
:100090000D5A00080D5A00080D5A00080D5A0008A4
:1000A0000D5A00080D5A00080D5A00080D5A000894
:1000B0000D5A00080D5A00080D5A00080D5A000884
:1000C0000D5A00080D5A00080D5A00080D5A000874
:1000D0000D5A00080D5A00080D5A00083959000839
:1000E0000D5A00080D5A00080D5A00080D5A000854
:1000F0000D5A00080D5A00080D5A00080D5A000844
:100100000D5A00080D5A00080D5A00080D5A000833
:100110000D5A00080D5A00084D5900080D5A0008E4
:100120000D5A00080D5A00080D5A00080D5A000813
:100130000D5A00080D5A00080D5A00080D5A000803
:100140000D5A00080D5A00080D5A00080D5A0008F3
:100150000D5A00080D5A00080D5A00080D5A0008E3
:100160000D5A00080D5A00080D5A00080D5A0008D3
:100170000D5A00080D5A00080D5A00080000000032
:080180000D5A00080D5A000899
:1001880010B5054C237833B9044B13B10448AFF3C9
:1001980000800123237010BD3804002000000000F7
:1001A800E85B0008084B10B51BB108490848AFF3D5
:1001B80000800848036803B910BD074B002BFBD02B
:1001C800BDE81040184700BF000000003C040020B4
:1001D800E85B0008380400200000000080F00040C0
:1001E80002E000BF81F0004142001FBF5FEA410307
:1001F80092EA030F7FEA226C7FEA236C6AD04FEA07
:100208001262D2EB1363C1BFD2184140484041404B
:10021800B8BF5B42192B88BF704710F0004F40F4FD
:10022800000020F07F4018BF404211F0004F41F419
:10023800000121F07F4118BF494292EA030F3FD0E5
:10024800A2F1010241FA03FC10EB0C00C3F12003F8
:1002580001FA03F100F0004302D5494260EB400087
:10026800B0F5000F13D3B0F1807F06D340084FEAF2
:10027800310102F10102FE2A51D2B1F1004F40EBE7
:10028800C25008BF20F0010040EA0300704749004F
:1002980040EB000010F4000FA2F10102EDD1B0FA1A
:1002A80080FCACF1080CB2EB0C0200FA0CF0AABF0F
:1002B80000EBC25052421843BCBFD04018437047AD
:1002C80092F0000F81F4000106BF80F400000132B3
:1002D800013BB5E74FEA41037FEA226C18BF7FEA8A
:1002E800236C21D092EA030F04D092F0000F08BFCC
:1002F8000846704790EA010F1CBF0020704712F0B3
:100308007F4F04D1400028BF40F00040704712F1F1
:1003180000723CBF00F50000704700F0004343F056
:10032800FE4040F4000070477FEA226216BF08468C
:100338007FEA23630146420206BF5FEA412390EA4F
:10034800010F40F4800070474FF0000304E000BF45
:1003580010F0004348BF40425FEA000C08BF7047F6
:1003680043F0964301464FF000001CE050EA0102BA
:1003780008BF70474FF000030AE000BF50EA0102CF
:1003880008BF704711F0004302D5404261EB4101BC
:100398005FEA010C02BF84460146002043F0B643E1
:1003A80008BFA3F18053A3F50003BCFA8CF2083A06
:1003B800A3EBC25310DB01FA02FC634400FA02FC0F
:1003C800C2F12002BCF1004F20FA02F243EB020016
:1003D80008BF20F00100704702F1200201FA02FC78
:1003E800C2F1200250EA4C0021FA02F243EB02006B
:1003F80008BF20EADC7070474FF0FF0C1CEAD052AF
:100408001EBF1CEAD15392EA0C0F93EA0C0F6FD06F
:100418001A4480EA010C400218BF5FEA41211ED04D
:100428004FF0006343EA501043EA5111A0FB013139
:100438000CF00040B1F5000F3EBF490041EAD3710E
:100448005B0040EA010062F17F02FD2A1DD8B3F18A
:10045800004F40EBC25008BF20F00100704790F0F9
:10046800000F0CF0004C08BF49024CEA502040EA4B
:1004780051207F3AC2BFD2F1FF0340EAC250704711
:1004880040F400004FF00003013A5DDC12F1190F4F
:10049800DCBF00F000407047C2F10002410021FAC1
:1004A80002F1C2F1200200FA02FC5FEA310040F1D9
:1004B800000053EA4C0308BF20EADC70704792F052
:1004C800000F00F0004C02BF400010F4000F013A8A
:1004D800F9D040EA0C0093F0000F01F0004C02BF85
:1004E800490011F4000F013BF9D041EA0C018FE7F4
:1004F8000CEAD15392EA0C0F18BF93EA0C0F0AD0FA
:1005080030F0004C18BF31F0004CD8D180EA01001F
:1005180000F00040704790F0000F17BF90F0004FB8
:10052800084691F0000F91F0004F14D092EA0C0F9A
:1005380001D142020FD193EA0C0F03D14B0218BF2D
:10054800084608D180EA010000F0004040F0FE4073
:1005580040F40000704740F0FE4040F4400070470F
:100568004FF0FF0C1CEAD0521EBF1CEAD15392EA8E
:100578000C0F93EA0C0F69D0A2EB030280EA010C7E
:1005880049024FEA402037D04FF0805343EA111117
:1005980043EA10130CF000408B4238BF5B0042F175
:1005A8007D024FF4000C8B4224BF5B1A40EA0C001A
:1005B800B3EB510F24BFA3EB510340EA5C00B3EB4C
:1005C800910F24BFA3EB910340EA9C00B3EBD10F3A
:1005D80024BFA3EBD10340EADC001B0118BF5FEA8C
:1005E8001C1CE0D1FD2A3FF650AF8B4240EBC250B5
:1005F80008BF20F0010070470CF0004C4CEA502076
:100608007F32C2BFD2F1FF0340EAC250704740F4C4
:1006180000004FF00003013A37E792F0000F00F0B6
:10062800004C02BF400010F4000F013AF9D040EA34
:100638000C0093F0000F01F0004C02BF490011F4C8
:10064800000F013BF9D041EA0C0195E70CEAD153C0
:1006580092EA0C0F08D142027FF47DAF93EA0C0FA7
:100668007FF470AF084676E793EA0C0F04D14B028B
:100678003FF44CAF08466EE730F0004C18BF31F03D
:10068800004CCAD130F000427FF45CAF31F0004337
:100698007FF43CAF5FE700BF53B94AB9002908BFF0
:1006A80000281CBF4FF0FF314FF0FF3000F07EB93B
:1006B800ADF1080C6DE904CE00F006F8DDF804E0B1
:1006C800DDE9022304B070472DE9F0478C460E4659
:1006D8000446089D002B50D18A4217466CD9B2FABD
:1006E80082FEBEF1000F0BD0CEF1200420FA04F4F4
:1006F80001FA0EF644EA060C02FA0EF700FA0EF4B6
:100708004FEA1749220CBCFBF9F01FFA87F809FBDE
:1007180010C642EA064600FB08F3B34209D9F619A7
:1007280000F1FF3280F02281B34240F21F8102388B
:100738003E44F61AA2B2B6FBF9F309FB136642EA85
:10074800064403FB08F8A04509D9E41903F1FF3270
:1007580080F00A81A04540F20781023B3C44C8EB87
:10076800040443EA00400021002D62D024FA0EF46C
:1007780000232C606B60BDE8F0878B4207D9002D01
:1007880055D0002185E841000846BDE8F087B3FA56
:1007980083F1002940F09080B34202D3824200F2F4
:1007A800F880841A66EB03060120B446002D40D079
:1007B80085E81010BDE8F08712B90127B7FBF2F7FA
:1007C800B7FA87FEBEF1000F35D1F31B4FEA174881
:1007D8001FFA87FC0121B3FBF8F0220C08FB103646
:1007E80042EA06460CFB00F3B34207D9F61900F1BA
:1007F800FF3202D2B34200F2CE801046F61AA2B2FD
:10080800B6FBF8F308FB136642EA06440CFB03FC4C
:10081800A44507D9E41903F1FF3202D2A44500F236
:10082800B5801346CCEB040443EA00409CE7294614
:100838002846BDE8F087CEF1200106FA0EF307FA44
:100848000EF720FA01F94FEA1748CE4049EA0309A2
:10085800B6FBF8FA4FEA194408FB1A661FFA87FC38
:1008680044EA06430AFB0CF29A4200FA0EF40AD94B
:10087800DB190AF1FF3180F087809A4240F28480C8
:10088800AAF1020A3B449B1A1FFA89F9B3FBF8F153
:1008980008FB113349EA034301FB0CF69E4207D9D2
:1008A800DB1901F1FF326BD29E4269D902393B4410
:1008B8009B1B41EA0A418EE7C1F1200E22FA0EF491
:1008C8008B40234320FA0EF706FA01F44FEA134C43
:1008D80026FA0EF63C43B6FBFCF9270C0CFB19660E
:1008E8001FFA83F847EA064609FB08F7B74202FAF7
:1008F80001F200FA01FA08D9F61809F1FF3041D2DD
:10090800B7423FD9A9F102091E44F61BA0B2B6FBB3
:10091800FCF40CFB146640EA064704FB08F8B845EB
:1009280007D9FF1804F1FF3028D2B84526D9023C70
:100938001F4444EA0940C8EB0707A0FB02894F455A
:1009480044464E4614D329D065B3BAEB040367EB8B
:10095800060707FA0EFECB40CF404EEA030385E8B0
:1009680088000021BDE8F0871346F8E61046E0E667
:10097800B8EB020469EB03060138E5E70446D8E75B
:10098800114695E78146C0E78A467CE7023B3C442E
:1009980048E708460AE702383E442FE7C245E7D34E
:1009A8003E46D1E72946BDE8F08700BF704700BF43
:1009B800844641EA000313F003036DD1403A41D362
:1009C80051F8043B40F8043B51F8043B40F8043B21
:1009D80051F8043B40F8043B51F8043B40F8043B11
:1009E80051F8043B40F8043B51F8043B40F8043B01
:1009F80051F8043B40F8043B51F8043B40F8043BF1
:100A080051F8043B40F8043B51F8043B40F8043BE0
:100A180051F8043B40F8043B51F8043B40F8043BD0
:100A280051F8043B40F8043B51F8043B40F8043BC0
:100A380051F8043B40F8043B51F8043B40F8043BB0
:100A4800403ABDD2303211D351F8043B40F8043B50
:100A580051F8043B40F8043B51F8043B40F8043B90
:100A680051F8043B40F8043B103AEDD20C3205D360
:100A780051F8043B40F8043B043AF9D2043208D058
:100A8800D2071CBF11F8013B00F8013B01D30B88CA
:100A980003806046704700BF082A13D38B078DD0A8
:100AA80010F003038AD0C3F10403D21ADB071CBF7A
:100AB80011F8013B00F8013B80D331F8023B20F8E4
:100AC800023B7BE7043AD9D3013A11F8013B00F81D
:100AD800013BF9D20B7803704B7843708B788370A5
:100AE8006046704780B58EB000AF0346FB710123A6
:100AF80087F8373007F10C0320220021184604F04C
:100B0800ABFF07F10C033B633A6B1378232161F3C6
:100B1800060313703A6B13786FF3C713137001222F
:100B2800396B6B2000F038FA034687F8373097F8AE
:100B38003730002B17D13B6B0133FB62FB7903F095
:100B48000103D9B2FA6A137861F3410313700122E1
:100B5800396B6B2000F074FA034687F8373097F842
:100B68003730002B00E000BF97F837301846383789
:100B7800BD4680BD80B58EB000AF0346FB71012332
:100B880087F8373007F10C0320220021184604F0BB
:100B980063FF07F10C033B633A6B1378232161F37E
:100BA800060313703A6B13786FF3C713137001229F
:100BB800396B6B2000F0F0F9034687F8373097F867
:100BC8003730002B17D13B6B0133FB62FB7903F005
:100BD8000103D9B2FA6A137861F300031370012292
:100BE800396B6B2000F02CFA034687F8373097F8FA
:100BF8003730002B00E000BF97F8373018463837F9
:100C0800BD4680BD80B58EB000AF0346FB710123A1
:100C180087F8373007F10C0320220021184604F02A
:100C28001BFF07F10C033B633A6B13782E2161F32A
:100C3800060313703A6B13786FF3C713137001220E
:100C4800396B6B2000F0A8F9034687F8373097F81E
:100C58003730002B17D13B6B0133FB62FB7903F074
:100C68001F03D9B2FA6A137861F3040313700122DF
:100C7800396B6B2000F0E4F9034687F8373097F8B2
:100C88003730002B00E000BF97F837301846383768
:100C9800BD4680BD80B58CB000AF002387F82F30EB
:100CA800012387F82E303B1D20220021184604F02E
:100CB800D3FE3B1DBB62BA6A13782F2161F306038A
:100CC8001370BA6A13786FF3C71313700122B96AE5
:100CD8006B2000F061F9034687F82E3097F82E3024
:100CE800002B0AD1BB6A01337B627B6A1B78C3F392
:100CF8000503DBB287F82F3000E000BF97F82F30EC
:100D080018463037BD4680BD80B58EB000AF7860DC
:100D1800012387F8373007F10803202200211846FD
:100D280004F09AFE07F108033B637B68DB78012B2C
:100D38002FD13A6B1378202161F3060313703A6BB5
:100D480013786FF3C71313700122396B6B2000F00F
:100D580023F9034687F8373097F83730002B4CD102
:100D68003B6B0133FB627B681B7903F00703D9B245
:100D7800FA6A137861F3471313700122396B6B20F9
:100D880000F05EF9034687F8373097F83730002BC4
:100D980038E07B68DB78022B31D13A6B137810216D
:100DA80061F3060313703A6B13786FF3C71313706C
:100DB8000122396B6B2000F0EFF8034687F83730D3
:100DC80097F83730002B1CD13B6B0133BB627B6833
:100DD8005B7903F00703D9B2BA6A137861F3471352
:100DE80013700122396B6B2000F02AF9034687F84B
:100DF800373097F83730002B04E000BF02E000BF1F
:100E080000E000BF97F8373018463837BD4680BD38
:100E180080B58EB000AF0346FB71012387F83730E9
:100E280007F10C0320220021184604F015FE07F1F3
:100E38000C033B633A6B13782E2161F3060313709E
:100E48003A6B13786FF3C71313700122396B6B2059
:100E580000F0A2F8034687F8373097F83730002BB0
:100E68002BD13B6B0133FB62FB79062B27D801A200
:100E780052F823F0990E0008990E0008C70E0008D2
:100E8800990E0008990E0008C70E0008990E000870
:100E9800FB7903F00703D9B2FA6A137861F34713B1
:100EA80013700122396B6B2000F0CAF8034687F8EB
:100EB800373097F83730002B01E000BF00E000BF63
:100EC80097F8373018463837BD4680BD80B584B0AE
:100ED80000AF786039600123FB737B68002B47D033
:100EE8003B68002B44D0254A7B6813603868FFF7BD
:100EF8000BFF0346FB73FB7B002B34D13B689B79CC
:100F08001846FFF785FF0346FB73FB7B002B2CD1AC
:100F18000120FFF7E7FD0346FB73FB7B002B26D17F
:100F28003B681B78032B07D83B681B781A46144B81
:100F380053F82230134A13603B685B78022B07D8BA
:100F48003B685B781A46104B53F822300F4A1360FF
:100F5800D02200210E4804F07FFDD02200210D4848
:100F680004F07AFD04E000BF02E000BF00E000BF2B
:100F7800FB7B18461037BD4680BD00BF54040020D7
:100F8800005C000858040020105C00085C04002085
:100F9800780400205C05002090B589B002AF0346B4
:100FA800B9607A60FB730123FB750123BB750023CD
:100FB800BB82FB7B03F07F03DAB23B7D62F347031E
:100FC8003B751E4B1B68002B2CD0BB68002B2BD00D
:100FD8003B7D6FF300033B75184B1868B98ABA68F4
:100FE80014230093012301F0DDFB0346BB75BB7D91
:100FF800002B1BD13B7D43F001033B750F4B186859
:10100800B98ABB685A1C7B689CB214230093234698
:1010180001F0C6FC0346BB75BB7D002B08D100233D
:10102800FB7506E000BF04E000BF02E000BF00E07F
:1010380000BFFB7D18461C37BD4690BD54040020F8
:1010480080B588B002AF0346B9607A60FB730123AC
:10105800FB750123BB750023BB82FB7B03F07F0379
:10106800DAB23B7D62F347033B75154B1B68002BD7
:101078001BD0BB68002B1AD03B7D6FF300033B7578
:101088000F4B1868B98A7B689BB201339AB2142354
:1010980000931346BA6801F085FB0346BB75BB7D18
:1010A800002B06D10023FB7504E000BF02E000BF5F
:1010B80000E000BFFB7D18461837BD4680BD00BF65
:1010C8005404002080B584B000AF786039607B6834
:1010D8000022C3F8C0207B680022C3F8C4207B68C4
:1010E8000022C3F8C8207B6893F8CC3083F0010352
:1010F800DBB2002B4BD00023FB6040E0FA681346BC
:101108005B0013445B007A6813440622396818466A
:10111800FFF74EFC7B68D3F8C0107868FA6813466E
:101128005B0013445B000344B3F90030CA187B68C2
:10113800C3F8C0207B68D3F8C4107868FA681346EF
:101148005B0013445B0003440233B3F90030CA1850
:101158007B68C3F8C4207B68D3F8C8107868FA683D
:1011680013465B0013445B0003440433B3F90030B7
:10117800CA187B68C3F8C820FB680133FB60FB68AA
:101188001F2BBBD97B68012283F8CC2072E01F2378
:10119800BB6048E0BB685A1E7868B9680B465B00BC
:1011A8000B445B001844796813465B0013445B00EA
:1011B800CA1803461168196092889A807B68D3F828
:1011C800C0107868BA6813465B0013445B00034498
:1011D800B3F90030CA187B68C3F8C0207B68D3F81D
:1011E800C4107868BA6813465B0013445B00034474
:1011F8000233B3F90030CA187B68C3F8C4207B688F
:10120800D3F8C8107868BA6813465B0013445B00CB
:1012180003440433B3F90030CA187B68C3F8C82004
:10122800BB68013BBB60BB68002BB3D17B6806225F
:1012380039681846FFF7BCFB7B68D3F8C0307A687A
:10124800B2F900201A447B68C3F8C0207B68D3F841
:10125800C4307A68B2F902201A447B68C3F8C42003
:101268007B68D3F8C8307A68B2F904201A447B68DE
:10127800C3F8C82000BF1037BD4680BD80B58CB00C
:1012880000AF7860012387F82F3007F10803202288
:101298000021184604F0E0FB07F10803BB627B68F5
:1012A800002B63D0BA6A1378282161F30603137000
:1012B800BA6A137843F0800313700622B96A6B2068
:1012C800FFF76AFE034687F82F3097F82F30002B78
:1012D8004ED1BB6A9B781B021AB2BB6A5B781BB201
:1012E80013431AB27B681A80BB6A1B791B021AB2B5
:1012F800BB6ADB781BB213431AB27B685A80BB6A9D
:101308009B791B021AB2BB6A5B791BB213431AB2F0
:101318007B689A801A4B1B78002B2AD07B68B3F91C
:1013280000309AB2174BB3F900309BB2D31A9BB274
:101338001AB27B681A807B68B3F902309AB2114BF3
:10134800B3F902309BB2D31A9BB21AB27B685A80A7
:101358007B68B3F904309AB20A4BB3F904309BB2F4
:10136800D31A9BB21AB27B689A8002E000BF00E0F1
:1013780000BF97F82F3018463037BD4680BD00BFF4
:10138800600400206404002080B58CB000AF786051
:10139800012387F82F3007F108032022002118467F
:1013A80004F05AFB07F10803BB627B68002B63D08B
:1013B800BA6A1378182161F306031370BA6A1378AE
:1013C80043F0800313700622B96A6B20FFF7E4FD2F
:1013D800034687F82F3097F82F30002B4ED1BB6A81
:1013E8009B781B021AB2BB6A5B781BB213431AB212
:1013F8007B681A80BB6A1B791B021AB2BB6ADB784E
:101408001BB213431AB27B685A80BB6A9B791B02D2
:101418001AB2BB6A5B791BB213431AB27B689A8013
:101428001A4B1B78002B2AD07B68B3F900309AB28C
:10143800174BB3F900309BB2D31A9BB21AB27B6830
:101448001A807B68B3F902309AB2114BB3F90230B3
:101458009BB2D31A9BB21AB27B685A807B68B3F9E5
:1014680004309AB20A4BB3F904309BB2D31A9BB238
:101478001AB27B689A8002E000BF00E000BF97F8CC
:101488002F3018463037BD4680BD00BF60040020AD
:101498004805002090B58DB000AF012387F82F30A4
:1014A800002387F82E3000233B6200237B62002351
:1014B800BB6200237B610023BB610023FB6107F152
:1014C8000C0306220021184604F0C6FA3B1D06222A
:1014D8000021184604F0C0FA1F20FFF793FB0346CB
:1014E80087F82F3097F82F30002B40F0D18001205B
:1014F800FFF740FB034687F82F3097F82F30002B73
:1015080040F0C88004E0FFF7C5FB034687F82E309B
:1015180097F82E301E2BF6D9634B00221A70002341
:1015280087F82D3039E007F10C031846FFF7A6FEBF
:10153800034687F82F3097F82F30002B34D13B1D06
:101548001846FFF721FF034687F82F3097F82F300A
:10155800002B2BD13B6AB7F90C2013443B627B6A02
:10156800B7F90E2013447B62BB6AB7F91020134405
:10157800BB627B69B7F9042013447B61BB69B7F987
:1015880006201344BB61FB69B7F908201344FB61CB
:1015980097F82D30013387F82D3097F82D2097F8DC
:1015A8002E309A42BFD302E000BF00E000BF002304
:1015B80087F82C3054E097F82C2097F82C309B00B3
:1015C80007F130010B4453F8101C97F82E3091FBAB
:1015D800F3F319B2354B23F8121097F82C4097F80B
:1015E8002C30324A32F913301846FEF7B1FE024663
:1015F8002F4B1B6819461046FEF7FEFE03461A4697
:101608002C4B43F8242097F82C2097F82C309B007B
:1016180007F130010B4453F81C1C97F82E3091FB4E
:10162800F3F319B2244B23F8121097F82C4097F8CB
:101638002C30214A32F913301846FEF789FE02464B
:101648001E4B1B6819461046FEF7D6FE03461A467F
:101658001B4B43F8242097F82C30013387F82C30A3
:1016680097F82C30022BA6D90F4B01221A700020B4
:10167800FFF780FA034687F82F3097F82F30002BB2
:101688000AD10020FFF7BEFA034687F82F3004E09E
:1016980000BF02E000BF00E000BF97F82F301846F7
:1016A8003437BD4690BD00BF6004002064040020AC
:1016B800580400206C040020480500205C04002029
:1016C8005005002080B588B000AF78600023FB612A
:1016D8000123BB760023FB7607F1140300221A606E
:1016E8009A8007F10C0300221A609A80FFF7D2FA59
:1016F8000346FB76FB7E002B37D0FB7EFB6107F1B0
:1017080014031846FFF7BAFD0346BB76BB7E002BD1
:1017180002D00023FB6128E007F10C031846FFF70D
:1017280033FE0346BB76BB7E002B02D00023FB6151
:101738001BE007F1140319460E48FFF7C3FC07F135
:101748000C0319460C48FFF7BDFC7B68002B06D03C
:1017580007F10C0107F114027B6810469847FB7EDD
:10176800013BFB76FB7E002BC9D1FB69184620376D
:10177800BD4680BD780400205C05002080B500AF20
:101788000E4A0E4B1B6843F4007313600B4A0B4B55
:101798001B6843F480631360084A084B1B6843F4D2
:1017A80080731360032000F043F9002000F008F86C
:1017B80003F064FF0023184680BD00BF003C0240D0
:1017C80080B582B000AF7860124B1A68124B1B7854
:1017D80019464FF47A73B3FBF1F3B2FBF3F31846EF
:1017E80000F05CF90346002B01D001230EE07B6872
:1017F8000F2B0AD8002279684FF0FF3000F024F947
:10180800064A7B681360002300E001231846083766
:10181800BD4680BD08000020040000200000002014
:1018280080B400AF054B1B781A46054B1B68134460
:10183800034A136000BFBD4680BC70470400002007
:101848002C06002080B400AF024B1B681846BD462A
:1018580080BC70472C06002080B584B000AF78604B
:10186800FFF7F0FFB8607B68FB60FB68B3F1FF3FF0
:1018780005D0094B1B781A46FB681344FB6000BF70
:10188800FFF7E0FF0246BB68D21AFB689A42F7D31B
:1018980000BF1037BD4680BD0400002080B485B06D
:1018A80000AF78607B6803F00703FB600C4BDB68D4
:1018B800BB60BA684FF6FF031340BB60FB681A02AF
:1018C800BB68134343F0BF6343F40033BB60044A6F
:1018D800BB68D36000BF1437BD4680BC704700BFEB
:1018E80000ED00E080B400AF044BDB6803F4E06374
:1018F8001B0A1846BD4680BC704700BF00ED00E0DB
:1019080080B483B000AF0346FB7197F90730002B12
:101918000BDB084997F907305B09FA7902F01F02D7
:10192800012000FA02F241F8232000BF0C37BD461F
:1019380080BC704700E100E080B483B000AF03468C
:101948003960FB7197F90730002B0ADB0D4997F9CD
:1019580007303A68D2B21201D2B20B4483F800239E
:101968000AE00949FB7903F00F03043B3A68D2B255
:101978001201D2B20B441A7600BF0C37BD4680BCA8
:10198800704700BF00E100E000ED00E080B489B0DE
:1019980000AFF860B9607A60FB6803F00703FB6189
:1019A800FB69C3F10703042B28BF0423BB61FB6950
:1019B8000433062B02D9FB69033B00E000237B615B
:1019C8000122BB6902FA03F35A1EBB681A407B69FD
:1019D8009A4001217B6901FA03F3591E7B680B4089
:1019E800134318462437BD4680BC704780B582B083
:1019F80000AF78607B68013BB3F1807F01D301239E
:101A08000FE00A4A7B68013B53600F214FF0FF301B
:101A1800FFF792FF054B00229A60044B07221A60D9
:101A2800002318460837BD4680BD00BF10E000E01F
:101A380080B582B000AF78607868FFF72FFF00BFED
:101A48000837BD4680BD00BF80B586B000AF0346ED
:101A5800B9607A60FB7300237B61FFF743FF78610D
:101A68007A68B9687869FFF791FF024697F90F30ED
:101A780011461846FFF760FF00BF1837BD4680BD06
:101A880080B582B000AF0346FB7197F9073018465E
:101A9800FFF736FF00BF0837BD4680BD80B582B06E
:101AA80000AF78607868FFF7A1FF0346184608374B
:101AB800BD4680BD80B586B000AF786000237B61ED
:101AC800FFF7C0FE38617B68002B01D1012399E044
:101AD8007B68002283F834207B68022283F8352053
:101AE8007B681B687A681268126822F001021A6023
:101AF8000FE0FFF7A7FE02463B69D31A052B08D96A
:101B08007B6820225A657B68032283F835200323EB
:101B180078E07B681B681B6803F00103002BE8D1A1
:101B28007B681B681B687B617A69384B13407B6153
:101B38007B685A687B689B681A437B68DB681A4332
:101B48007B681B691A437B685B691A437B689B69DE
:101B58001A437B68DB691A437B681B6A13437A69FB
:101B680013437B617B685B6A042B07D17B68DA6A65
:101B78007B681B6B13437A6913437B617B681B6823
:101B88007A691A607B681B685B697B617B6923F0F3
:101B980007037B617B685B6A7A6913437B617B68B7
:101BA8005B6A042B17D17B689B6A7A6913437B6154
:101BB8007B68DB6A002B0ED0786800F08FFA03464A
:101BC800002B08D07B6840225A657B68012283F885
:101BD8003520012316E07B681B687A695A617868AA
:101BE80000F048FA0346FB607B68DB6D3F229A40B1
:101BF800FB689A607B6800225A657B68012283F83B
:101C08003520002318461837BD4680BD3F8010F0A8
:101C180080B586B000AFF860B9607A603B60002399
:101C2800FB75FB689B6D3B61FB6893F83430012BB7
:101C380001D1022340E0FB68012283F83420FB68CD
:101C480093F83530DBB2012B2FD1FB68022283F8E1
:101C58003520FB6800225A653B687A68B968F868DD
:101C680000F0DAF9FB68DB6D3F229A403B699A6025
:101C7800FB681B68FA681268126842F016021A605C
:101C8800FB681B6C002B07D0FB681B68FA6812689E
:101C9800126842F008021A60FB681B68FA6812684A
:101CA800126842F001021A6005E0FB68002283F81E
:101CB80034200223FB75FB7D18461837BD4680BDCE
:101CC80080B483B000AF78607B6893F83530DBB2BE
:101CD800022B04D07B6880225A6501230CE07B68C4
:101CE800052283F835207B681B687A6812681268B9
:101CF80022F001021A60002318460C37BD4680BC4A
:101D0800704700BF80B586B000AF78600023BB6025
:101D1800924B1B68924AA2FB03239B0A7B617B6858
:101D28009B6D3B613B691B68FB607B68DB6D082230
:101D38009A40FB681340002B1AD07B681B681B680D
:101D480003F00403002B13D07B681B687A681268C1
:101D5800126822F004021A607B68DB6D08229A4040
:101D68003B699A607B685B6D43F001027B685A654A
:101D78007B68DB6D01229A40FB681340002B12D070
:101D88007B681B685B6903F08003002B0BD07B68C2
:101D9800DB6D01229A403B699A607B685B6D43F07A
:101DA80002027B685A657B68DB6D04229A40FB68F7
:101DB8001340002B12D07B681B681B6803F00203DA
:101DC800002B0BD07B68DB6D04229A403B699A603C
:101DD8007B685B6D43F004027B685A657B68DB6D4A
:101DE80010229A40FB681340002B43D07B681B6885
:101DF8001B6803F00803002B3CD07B68DB6D1022C6
:101E08009A403B699A607B681B681B6803F48023CF
:101E1800002B18D07B681B681B6803F40023002B79
:101E280008D17B681B6C002B24D07B681B6C7868FE
:101E380098471FE07B689B6C002B1BD07B689B6CD2
:101E48007868984716E07B681B681B6803F4807302
:101E5800002B07D17B681B687A681268126822F029
:101E680008021A607B681B6C002B03D07B681B6C14
:101E7800786898477B68DB6D20229A40FB6813409E
:101E8800002B00F08E807B681B681B6803F0100332
:101E9800002B00F086807B68DB6D20229A403B692E
:101EA8009A607B6893F83530DBB2052B36D17B68B6
:101EB8001B687A681268126822F016021A607B683A
:101EC8001B687A681268526922F080025A617B683E
:101ED8001B6C002B03D17B689B6C002B07D07B68A5
:101EE8001B687A681268126822F008021A607B6818
:101EF800DB6D3F229A403B699A607B68002283F839
:101F080034207B68012283F835207B681B6D002B09
:101F18007DD07B681B6D7868984778E07B681B6884
:101F28001B6803F48023002B1CD07B681B681B688C
:101F380003F40023002B08D17B685B6C002B30D0A6
:101F48007B685B6C786898472BE07B68DB6B002BC1
:101F580027D07B68DB6B7868984722E00800002070
:101F6800B5814E1B7B681B681B6803F48073002BCC
:101F78000FD17B681B687A681268126822F0100219
:101F88001A607B68002283F834207B68012283F87A
:101F980035207B68DB6B002B03D07B68DB6B7868B4
:101FA80098477B685B6D002B32D07B685B6D03F0D4
:101FB8000103002B22D07B68052283F835207B683B
:101FC8001B687A681268126822F001021A60BB68FE
:101FD8000133BB607A69934207D87B681B681B682A
:101FE80003F00103002BF2D100E000BF7B68002260
:101FF80083F834207B68012283F835207B68DB6C0A
:10200800002B05D07B68DB6C7868984700E000BF40
:102018001837BD4680BD00BF80B485B000AFF860FA
:10202800B9607A603B60FB681B68FA6812681268DE
:1020380022F480221A60FB681B683A685A60FB68C1
:102048009B68402B08D1FB681B687A689A60FB681C
:102058001B68BA68DA6007E0FB681B68BA689A60B0
:10206800FB681B687A68DA6000BF1437BD4680BC1D
:10207800704700BF80B485B000AF78607B681B688C
:10208800DBB2103B134AA2FB03231B09FB60124A75
:10209800FB6813441B781A467B68DA65FB68032BD8
:1020A80009D97B681B6823F47F7323F003031A1D87
:1020B8007B689A6507E07B681B6823F47F7323F0CD
:1020C80003037A6893657B689B6D18461437BD4691
:1020D80080BC7047ABAAAAAA1C5C000880B485B073
:1020E80000AF78600023FB737B689B6ABB607B68EA
:1020F8009B69002B1FD1BB68032B55D801A252F84E
:1021080023F000BF1D2100082F2100081D21000811
:10211800B12100087B68DB6A03F08073002B45D08F
:102128000123FB7342E07B68DB6AB3F1C07F3FD1D8
:102138000123FB733CE07B689B69B3F5005F21D109
:10214800BB68032B36D801A252F823F0652100089A
:102158006B210008652100087D2100080123FB731D
:102168002FE07B68DB6A03F08073002B24D0012307
:10217800FB7321E07B68DB6AB3F1C07F1ED10123CA
:10218800FB731BE0BB68022B02D9032B03D018E0BA
:102198000123FB7315E07B68DB6A03F08073002B77
:1021A8000ED00123FB730BE000BF0AE000BF08E07C
:1021B80000BF06E000BF04E000BF02E000BF00E08F
:1021C80000BFFB7B18461437BD4680BC704700BF74
:1021D80080B489B000AF7860396000237B61002348
:1021E8003B610023BB610023FB616BE10122FB69BA
:1021F80002FA03F37B613B681A687B6913403B6111
:102208003A697B699A4240F05A813B685B68012BC6
:102218000BD03B685B68022B07D03B685B68112BCF
:1022280003D03B685B68122B30D17B689B68BB612D
:10223800FB695B00032202FA03F3DB43BA6913402C
:10224800BB613B68DA68FB695B0002FA03F3BA69B1
:102258001343BB617B68BA699A607B685B68BB6142
:102268000122FB6902FA03F3DB43BA691340BB613D
:102278003B685B681B0903F00102FB6902FA03F380
:10228800BA691343BB617B68BA695A607B68DB68CB
:10229800BB61FB695B00032202FA03F3DB43BA6903
:1022A8001340BB613B689A68FB695B0002FA03F361
:1022B800BA691343BB617B68BA69DA603B685B68DB
:1022C800022B03D03B685B68122B23D1FB69DA0829
:1022D8007B68083253F82230BB61FB6903F00703BF
:1022E8009B000F2202FA03F3DB43BA691340BB6178
:1022F8003B681A69FB6903F007039B0002FA03F3C2
:10230800BA691343BB61FB69DA087B680832B969AB
:1023180043F822107B681B68BB61FB695B000322E2
:1023280002FA03F3DB43BA691340BB613B685B689D
:1023380003F00302FB695B0002FA03F3BA69134373
:10234800BB617B68BA691A603B685B6803F08053BD
:10235800002B00F0B4800023FB605F4A5E4B5B6C8F
:1023680043F4804353645C4B5B6C03F48043FB6031
:10237800FB685A4AFB699B08023352F82330BB6159
:10238800FB6903F003039B000F2202FA03F3DB430C
:10239800BA691340BB617B68514A93422BD07B6872
:1023A800504A934225D07B684F4A93421FD07B689E
:1023B8004E4A934219D07B684D4A934213D07B68AA
:1023C8004C4A93420DD07B684B4A934207D07B68B6
:1023D8004A4A934201D107230EE008230CE0062362
:1023E8000AE0052308E0042306E0032304E00223AF
:1023F80002E0012300E00023FA6902F003029200E0
:102408009340BA691343BB613449FB699B080233A3
:10241800BA6941F823203A4B1B68BB613B69DB432F
:10242800BA691340BB613B685B6803F48033002BD7
:1024380003D0BA693B691343BB61314ABB69136076
:102448002F4B5B68BB613B69DB43BA691340BB61D7
:102458003B685B6803F40033002B03D0BA693B691F
:102468001343BB61264ABB695360254B9B68BB611C
:102478003B69DB43BA691340BB613B685B6803F4A3
:102488008013002B03D0BA693B691343BB611C4A14
:10249800BB6993601A4BDB68BB613B69DB43BA6974
:1024A8001340BB613B685B6803F40013002B03D047
:1024B800BA693B691343BB61114ABB69D360FB69C5
:1024C8000133FB61FB690F2B7FF690AE00BF243709
:1024D800BD4680BC704700BF00380240003801404C
:1024E800000002400004024000080240000C0240C4
:1024F800001002400014024000180240001C024074
:10250800003C014080B483B000AF78600B467B800C
:1025180013467B707B78002B03D07A887B689A619E
:1025280003E07B881A047B689A6100BF0C37BD46BC
:1025380080BC704790B585B000AF78607B68002B91
:1025480001D101231FE17B6893F83D30DBB2002BFA
:1025580006D17B68002283F83C20786803F0B4F841
:102568007B68242283F83D207B681B687A681268A0
:10257800126822F001021A607B681B687A68126888
:10258800126842F400421A607B681B687A68126815
:10259800126822F400421A6001F086FBF8607B683A
:1025A8005B687B4A934207D8FB687A4A934294BF98
:1025B80001230023DBB206E0FB68774A934294BF0D
:1025C80001230023DBB2002B01D00123DBE0FB68F1
:1025D800724AA2FB03239B0CBB607B681B687A686A
:1025E8001268526822F03F01BA680A435A607B6851
:1025F8001A687B681B681B6A23F03F017B685B686D
:102608006348834202D8BB68013309E0BB684FF4D2
:10261800967000FB03F36248A0FB03039B09013398
:102628000B4313627B6818687B681B68DB6923F4BB
:102638004F4222F0FF027B685B6855498B420DD8F8
:10264800FB68591E7B685B685B00B1FBF3F30133E1
:10265800C3F30B03042B38BF04234FE07B689B684C
:10266800002B11D1FB685C1E7B6859680B465B0028
:102678000B44B4FBF3F30133C3F30B03002B0CBF80
:1026880001230023DBB212E0FB685C1E7B685968FB
:102698000B469B000B4499000B44B4FBF3F3013346
:1026A800C3F30B03002B0CBF01230023DBB2002B69
:1026B80001D0012322E07B689B68002B0ED1FB68C8
:1026C8005C1E7B6859680B465B000B44B4FBF3F354
:1026D8000133C3F30B0343F400430FE0FB685C1EB4
:1026E8007B6859680B469B000B4499000B44B4FB6C
:1026F800F3F30133C3F30B0343F440431343C361C0
:102708007B681B687A681268126822F0C0017A68D0
:10271800D0697A68126A02430A431A607B681A68A9
:102728007B681B689B6823F4034323F0FF037968E5
:1027380008697968C96801430B4393607B681B6823
:102748007A681268D26822F0FF017A6850697A685C
:10275800926902430A43DA607B681B687A681268E8
:10276800126842F001021A607B6800221A647B68D2
:10277800202283F83D207B6800221A637B680022B0
:1027880083F83E20002318461437BD4690BD00BF8D
:10279800A08601007F841E00FF083D0083DE1B43E6
:1027A800D34D621080B588B002AFF8607A601A46DF
:1027B8000B467B8113463B81FFF744F87861FB6841
:1027C80093F83D30DBB2202B40F0E0807B6900932A
:1027D800192301227049F86800F054FC0346002BC5
:1027E80001D00223D3E0FB6893F83C30012B01D1E0
:1027F8000223CCE0FB68012283F83C20FB681B68BD
:102808001B6803F00103002B07D1FB681B68FA68FB
:102818001268126842F001021A60FB681B68FA68C5
:102828001268126822F400621A60FB68212283F899
:102838003D20FB68102283F83E20FB6800221A64C2
:10284800FB687A685A62FB683A895A85FB685B8D2F
:102858009AB2FB681A85FB68504ADA6279897B6903
:102868003A6AF86800F0C2FA0346002B01D0012347
:102878008DE000233B61FB681B685B693B61FB687B
:102888001B689B693B613B6966E07A69396AF8684D
:1028980000F0CEFC0346002B0DD0FB681B6C042B0C
:1028A80007D1FB681B68FA681268126842F4007264
:1028B8001A6001236BE0FB681B68FA68526A127899
:1028C8001A61FB685B6A5A1CFB685A62FB685B8D7D
:1028D8009BB2013B9AB2FB685A85FB681B8D013B92
:1028E8009AB2FB681A85FB681B685B6903F00403EE
:1028F800002B1BD0FB681B8D002B17D0FB681B68B7
:10290800FA68526A12781A61FB685B6A5A1CFB689B
:102918005A62FB685B8D9BB2013B9AB2FB685A8591
:10292800FB681B8D013B9AB2FB681A857A69396A84
:10293800F86800F0BFFC0346002B0DD0FB681B6C49
:10294800042B07D1FB681B68FA681268126842F406
:1029580000721A6001231AE0FB681B8D002B94D1CA
:10296800FB681B68FA681268126842F400721A6001
:10297800FB68202283F83D20FB68002283F83E2074
:10298800FB68002283F83C20002300E0022318465D
:102998001837BD4680BD00BF020010000000FFFFD1
:1029A80080B58CB002AFF8607A601A460B467B811E
:1029B80013463B81FEF746FF7862FB6893F83D308B
:1029C800DBB2202B40F00B827B6A00931923012293
:1029D8007C49F86800F056FB0346002B01D002231F
:1029E800FEE1FB6893F83C30012B01D10223F7E1AB
:1029F800FB68012283F83C20FB681B681B6803F016
:102A08000103002B07D1FB681B68FA68126812687B
:102A180042F001021A60FB681B68FA6812681268C3
:102A280022F400621A60FB68222283F83D20FB68CA
:102A3800102283F83E20FB6800221A64FB687A683B
:102A48005A62FB683A895A85FB685B8D9AB2FB68C3
:102A58001A85FB685C4ADA6279897B6A3A6BF8689E
:102A680000F044FA0346002B01D00123B8E1FB68CB
:102A78001B8D002B13D100233B62FB681B685B692D
:102A88003B62FB681B689B693B623B6AFB681B688F
:102A9800FA681268126842F400721A608CE1FB68E6
:102AA8001B8D012B1BD1FB681B68FA681268126822
:102AB80022F480621A600023FB61FB681B685B6973
:102AC800FB61FB681B689B69FB61FB69FB681B6812
:102AD800FA681268126842F400721A606CE1FB68C6
:102AE8001B8D022B1BD1FB681B68FA6812681268E1
:102AF80022F480621A60FB681B68FA681268126820
:102B080042F400621A600023BB61FB681B685B69C2
:102B1800BB61FB681B689B69BB61BB694CE1FB68D7
:102B28001B68FA681268126842F480621A6000230F
:102B38007B61FB681B685B697B61FB681B689B6941
:102B48007B617B6938E1FB681B8D032B00F2F18008
:102B5800FB681B8D012B23D17A6A396BF86800F06A
:102B6800EBFB0346002B01D0012339E1FB685B6ACC
:102B7800FA6812681269D2B21A70FB685B6A5A1C4A
:102B8800FB685A62FB681B8D013B9AB2FB681A8589
:102B9800FB685B8D9BB2013B9AB2FB685A850BE1DF
:102BA800FB681B8D022B4ED17B6A00933B6B002286
:102BB8000649F86800F066FA0346002B08D001239E
:102BC8000EE100BF020010000000FFFF040001003A
:102BD800FB681B68FA681268126842F400721A608F
:102BE800FB685B6AFA6812681269D2B21A70FB68ED
:102BF8005B6A5A1CFB685A62FB681B8D013B9AB2E0
:102C0800FB681A85FB685B8D9BB2013B9AB2FB6837
:102C18005A85FB685B6AFA6812681269D2B21A7040
:102C2800FB685B6A5A1CFB685A62FB681B8D013B98
:102C38009AB2FB681A85FB685B8D9BB2013B9AB21E
:102C4800FB685A85B8E07B6A00933B6B00226649B3
:102C5800F86800F017FA0346002B01D00123BFE003
:102C6800FB681B68FA681268126822F480621A60AE
:102C7800FB685B6AFA6812681269D2B21A70FB685C
:102C88005B6A5A1CFB685A62FB681B8D013B9AB24F
:102C9800FB681A85FB685B8D9BB2013B9AB2FB68A7
:102CA8005A857B6A00933B6B00224F49F86800F015
:102CB800E9F90346002B01D0012391E0FB681B686A
:102CC800FA681268126842F400721A60FB685B6A5C
:102CD800FA6812681269D2B21A70FB685B6A5A1CE9
:102CE800FB685A62FB681B8D013B9AB2FB681A8528
:102CF800FB685B8D9BB2013B9AB2FB685A85FB6807
:102D08005B6AFA6812681269D2B21A70FB685B6A69
:102D18005A1CFB685A62FB681B8D013B9AB2FB6820
:102D28001A85FB685B8D9BB2013B9AB2FB685A859A
:102D380042E07A6A396BF86800F0FEFA0346002B25
:102D480001D001234CE0FB685B6AFA6812681269DB
:102D5800D2B21A70FB685B6A5A1CFB685A62FB683D
:102D68001B8D013B9AB2FB681A85FB685B8D9BB291
:102D7800013B9AB2FB685A85FB681B685B6903F0E4
:102D88000403002B18D0FB685B6AFA6812681269A2
:102D9800D2B21A70FB685B6A5A1CFB685A62FB68FD
:102DA8001B8D013B9AB2FB681A85FB685B8D9BB251
:102DB800013B9AB2FB685A85FB681B8D002B7FF498
:102DC800C2AEFB68202283F83D20FB68002283F80E
:102DD8003E20FB68002283F83C20002300E0022309
:102DE80018462837BD4680BD0400010080B588B06C
:102DF80002AFF8607A603B600B467B81FB68DB6A58
:102E08007B617B69082B06D07B69012B03D07B692A
:102E180013F5803F08D1FB681B68FA6812681268CE
:102E280042F480721A600BE0FB681B6B122B07D10F
:102E3800FB681B68FA681268126842F480721A60AC
:102E48003B6800937B6800224FF00111F86800F09E
:102E580019F90346002B0CD0FB681B681B6803F4A8
:102E68008073002B03D0FB684FF400721A640323AD
:102E780034E0FB681B69B3F5804F07D1FB681B681A
:102E88007A89D2B202F0FE021A611BE0FB681B6865
:102E98007A89D211D2B202F00602D2B262F00F02DF
:102EA800D2B21A613B687A680E49F86800F042F9B4
:102EB8000346002B01D0012310E0FB681B687A89C8
:102EC800D2B21A613B687A680749F86800F032F9AB
:102ED8000346002B01D0012300E0002318461837D1
:102EE800BD4680BD080001000200010080B588B021
:102EF80002AFF8607A603B600B467B81FB68DB6A57
:102F08007B61FB681B68FA681268126842F4806289
:102F18001A607B69082B06D07B69012B03D07B697B
:102F280013F5803F08D1FB681B68FA6812681268BD
:102F380042F480721A600BE0FB681B6B112B07D1FF
:102F4800FB681B68FA681268126842F480721A609B
:102F58003B6800937B6800224FF00111F86800F08D
:102F680091F80346002B0CD0FB681B681B6803F420
:102F78008073002B03D0FB684FF400721A6403239C
:102F880078E0FB681B69B3F5804F08D1FB681B68C4
:102F98007A89D2B242F00102D2B21A615EE0FB68CD
:102FA8001B687A89D211D2B202F00602D2B262F05C
:102FB8000F02D2B21A613B687A683049F86800F0AB
:102FC800B9F80346002B01D0012353E0FB681B68C6
:102FD8007A89D2B21A613B687A682949F86800F0A0
:102FE800A9F80346002B01D0012343E000233B61ED
:102FF800FB681B685B693B61FB681B689B693B61FD
:103008003B69FB681B68FA681268126842F48072B0
:103018001A603B6800937B6800224FF00111F86842
:1030280000F030F80346002B0CD0FB681B681B68C7
:1030380003F48073002B03D0FB684FF400721A640A
:10304800032317E0FB681B687A89D211D2B202F019
:103058000602D2B262F00E02D2B21A613B687A68F6
:103068000749F86800F066F80346002B01D00123F1
:1030780000E0002318461837BD4680BD080001004F
:103088000200010080B584B000AFF860B9603B6011
:103098001346FB7125E03B68B3F1FF3F21D0FEF7F3
:1030A800D1FB0246BB69D21A3B689A4202D83B68F8
:1030B800002B16D1FB6800221A63FB68202283F8D4
:1030C8003D20FB68002283F83E20FB681B6C43F020
:1030D8002002FB681A64FB68002283F83C20012365
:1030E80023E0BB681B0CDBB2012B0DD1FB681B680E
:1030F8005B69DA43BB6813409BB2002B0CBF01230A
:103108000023DBB21A460CE0FB681B689B69DA43B4
:10311800BB6813409BB2002B0CBF01230023DBB21A
:103128001A46FB799A42B6D0002318461037BD4696
:1031380080BD00BF80B584B000AFF860B9607A6028
:103148003B6050E0FB681B685B6903F48063002BFD
:1031580023D0FB681B68FA681268126842F4007290
:103168001A60FB681B686FF480625A61FB68002272
:103178001A63FB68202283F83D20FB68002283F84D
:103188003E20FB681B6C43F00402FB681A64FB6872
:10319800002283F83C20012346E07B68B3F1FF3F1F
:1031A80021D0FEF74FFB02463B68D21A7B689A4251
:1031B80002D87B68002B16D1FB6800221A63FB68D3
:1031C800202283F83D20FB68002283F83E20FB681C
:1031D8001B6C43F02002FB681A64FB68002283F82A
:1031E8003C20012320E0BB681B0CDBB2012B0CD177
:1031F800FB681B685B69DA43BB6813409BB2002B12
:1032080014BF01230023DBB20BE0FB681B689B693A
:10321800DA43BB6813409BB2002B14BF0123002381
:10322800DBB2002B8ED1002318461037BD4680BD77
:1032380080B584B000AFF860B9607A602DE0F868B6
:1032480000F0D0F80346002B01D001232DE0BB6825
:10325800B3F1FF3F21D0FEF7F5FA02467B68D21A98
:10326800BB689A4202D8BB68002B16D1FB680022C3
:103278001A63FB68202283F83D20FB68002283F84C
:103288003E20FB681B6C43F02002FB681A64FB6855
:10329800002283F83C20012307E0FB681B685B6978
:1032A80003F08003002BCAD0002318461037BD4610
:1032B80080BD00BF80B584B000AFF860B9607A60A7
:1032C8002DE0F86800F08EF80346002B01D00123AA
:1032D8002DE0BB68B3F1FF3F21D0FEF7B3FA0246F9
:1032E8007B68D21ABB689A4202D8BB68002B16D1F9
:1032F800FB6800221A63FB68202283F83D20FB68E4
:10330800002283F83E20FB681B6C43F02002FB6818
:103318001A64FB68002283F83C20012307E0FB685D
:103328001B685B6903F00403002BCAD0002318460E
:103338001037BD4680BD00BF80B584B000AFF860CF
:10334800B9607A6042E0FB681B685B6903F01003B0
:10335800002B19D0FB681B686FF010025A61FB68DC
:1033680000221A63FB68202283F83D20FB680022B4
:1033780083F83E20FB681A6CFB681A64FB6800221D
:1033880083F83C20012329E0FEF75CFA02467B68BB
:10339800D21ABB689A4202D8BB68002B16D1FB68C8
:1033A80000221A63FB68202283F83D20FB68002274
:1033B80083F83E20FB681B6C43F02002FB681A640C
:1033C800FB68002283F83C20012307E0FB681B68A8
:1033D8005B6903F04003002BB5D000231846103773
:1033E800BD4680BD80B483B000AF78607B681B6841
:1033F8005B6903F48063002B1BD07B681B686FF448
:1034080080625A617B6800221A637B68202283F8F5
:103418003D207B68002283F83E207B681B6C43F0CC
:1034280004027B681A647B68002283F83C2001232D
:1034380000E0002318460C37BD4680BC704700BF2B
:1034480080B586B000AF78607B68002B01D101237E
:103458005AE27B681B6803F00103002B74D0A74B6A
:103468009B6803F00C03042B0BD0A44B9B6803F060
:103478000C03082B11D1A14B5B6803F48003002BCC
:103488000BD09E4B1B6803F40033002B5BD07B688A
:103498005B68002B57D1012336E27B685B68B3F584
:1034A800803F06D1954A954B1B6843F480331360DF
:1034B8001DE07B685B68B3F5A02F0CD18F4A8F4B5A
:1034C8001B6843F4802313608C4A8C4B1B6843F4BD
:1034D800803313600BE0894A884B1B6823F48033E0
:1034E8001360864A854B1B6823F4802313607B682E
:1034F8005B68002B13D0FEF7A5F9386108E0FEF7EA
:10350800A1F902463B69D31A642B01D90323FBE1D5
:103518007A4B1B6803F40033002BF0D014E0FEF75D
:1035280091F9386108E0FEF78DF902463B69D31A34
:10353800642B01D90323E7E1704B1B6803F40033C4
:10354800002BF0D100E000BF7B681B6803F002038A
:10355800002B63D0694B9B6803F00C03002B0BD046
:10356800664B9B6803F00C03082B1CD1634B5B680C
:1035780003F48003002B16D1604B1B6803F0020391
:10358800002B05D07B68DB68012B01D00123BBE150
:103598005A495A4B1B6823F0F8027B681B69DB0009
:1035A80013430B603AE07B68DB68002B20D0544B58
:1035B80001221A60FEF746F9386108E0FEF742F981
:1035C80002463B69D31A022B01D903239CE14B4BDA
:1035D8001B6803F00203002BF0D04849474B1B68D7
:1035E80023F0F8027B681B69DB0013430B6015E0CE
:1035F800434B00221A60FEF725F9386108E0FEF710
:1036080021F902463B69D31A022B01D903237BE136
:103618003A4B1B6803F00203002BF0D17B681B6850
:1036280003F00803002B30D07B685B69002B16D0B1
:10363800344B01221A60FEF705F9386108E0FEF7FD
:1036480001F902463B69D31A022B01D903235BE136
:103658002A4B5B6F03F00203002BF0D015E0294BD7
:1036680000221A60FEF7EEF8386108E0FEF7EAF883
:1036780002463B69D31A022B01D9032344E11F4BAD
:103688005B6F03F00203002BF0D17B681B6803F02B
:103698000403002B00F0A0800023FB75174B1B6C64
:1036A80003F08053002B0FD10023BB60134A134B48
:1036B8001B6C43F080531364104B1B6C03F0805356
:1036C800BB60BB680123FB750F4B1B6803F4807359
:1036D800002B21D10C4A0C4B1B6843F480731360F8
:1036E800FEF7B0F8386111E0FEF7ACF802463B6926
:1036F800D31A022B0AD9032306E100BF003802407F
:1037080000004742800E474200700040804B1B6813
:1037180003F48073002BE7D07B689B68012B06D1EC
:103728007C4A7C4B1B6F43F0010313671CE07B68EA
:103738009B68052B0CD1774A764B1B6F43F004032B
:103748001367744A734B1B6F43F0010313670BE055
:10375800704A704B1B6F23F0010313676D4A6D4B62
:103768001B6F23F0040313677B689B68002B15D03D
:10377800FEF768F838610AE0FEF764F802463B692C
:10378800D31A41F28832934201D90323BCE0614B3A
:103798001B6F03F00203002BEED014E0FEF752F883
:1037A80038610AE0FEF74EF802463B69D31A41F247
:1037B8008832934201D90323A6E0564B1B6F03F0CE
:1037C8000203002BEED1FB7D012B05D1514A514B51
:1037D8001B6C23F0805313647B689B69002B00F0FB
:1037E80092804C4B9B6803F00C03082B5CD07B68E1
:1037F8009B69022B41D1484B00221A60FEF722F840
:10380800386108E0FEF71EF802463B69D31A022B1E
:1038180001D9032378E03F4B1B6803F00073002BAA
:10382800F0D13C497B68DA697B681B6A1A437B687C
:103838005B6A9B011A437B689B6A5B08013B1B041C
:103848001A437B68DB6A1B0613434B60324B012229
:103858001A60FDF7F7FF386108E0FDF7F3FF02464D
:103868003B69D31A022B01D903234DE0294B1B686E
:1038780003F00073002BF0D045E0274B00221A60BC
:10388800FDF7E0FF386108E0FDF7DCFF02463B6921
:10389800D31A022B01D9032336E01E4B1B6803F011
:1038A8000073002BF0D12EE07B689B69012B01D1BE
:1038B800012329E0174B9B68FB60FB6803F4800237
:1038C8007B68DB699A421CD1FB6803F03F027B6886
:1038D8001B6A9A4215D1FA6847F6C07313407A6892
:1038E800526A93420DD1FB6803F440327B689B6AAD
:1038F8009A4206D1FB6803F070627B68DB6A9A42E1
:1039080001D0012300E0002318461837BD4680BDCA
:1039180000700040003802406000474280B584B023
:1039280000AF786039607B68002B01D10123CCE0BF
:10393800684B1B6803F00F023B689A420CD2654B38
:103948003A68D2B21A70634B1B6803F00F023B68E7
:103958009A4201D00123B8E07B681B6803F0020398
:10396800002B20D07B681B6803F00403002B05D0D4
:10397800594A594B9B6843F4E05393607B681B6832
:1039880003F00803002B05D0534A534B9B6843F4BC
:10399800604393605049504B9B6823F0F0027B686A
:1039A8009B6813438B607B681B6803F00103002B43
:1039B80044D07B685B68012B07D1474B1B6803F435
:1039C8000033002B19D101237FE07B685B68022B51
:1039D80003D07B685B68032B07D13F4B1B6803F060
:1039E8000073002B09D101236FE03B4B1B6803F0E8
:1039F8000203002B01D1012367E03749364B9B684E
:103A080023F003027B685B6813438B60FDF71AFFA2
:103A1800F8600AE0FDF716FF0246FB68D31A41F288
:103A28008832934201D903234FE02B4B9B6803F064
:103A38000C027B685B689B009A42EBD1254B1B68A4
:103A480003F00F023B689A420CD9224B3A68D2B273
:103A58001A70204B1B6803F00F023B689A4201D092
:103A6800012332E07B681B6803F00403002B08D0B5
:103A78001949194B9B6823F4E0527B68DB681343B0
:103A88008B607B681B6803F00803002B09D0124980
:103A9800114B9B6823F460427B681B69DB0013436E
:103AA8008B6000F021F801460B4B9B6803F0F00394
:103AB8001B090A4AD35C21FA03F3094A1360094B2C
:103AC8001B681846FDF77CFE002318461037BD46D4
:103AD80080BD00BF003C0240003802402C5C00085A
:103AE80008000020000000202DE9F04F8FB000AF43
:103AF8000023FB6200237B630023BB6200233B633C
:103B0800614B9B6803F00C03042B07D0082B08D0EB
:103B1800002B40F0AF805D4B3B63AEE05C4B3B63FA
:103B2800ABE0594B5B6803F03F03FB62564B5B68A5
:103B380003F48003002B4DD0534B5A6847F6C073EB
:103B480013409B0919464FF000020B461446E0004B
:103B58007862786A40EA53707862DB003B62D7E9A2
:103B680008346001F861F86940EAD360F8615801E7
:103B7800B861D7E90656ED1A66EB040633464FEAF4
:103B880083192B4649EA93692B464FEA8318B8EB09
:103B9800050569EB0606A846B14618EB010849EB8E
:103BA80002094FEA49237B617B6943EAD8537B6169
:103BB8004FEA48233B61D7E9048940464946FB6AF6
:103BC8004FF000041A462346FCF766FD03460C46F0
:103BD8007B6341E02C4B5A6847F6C07313409B093E
:103BE80019464FF000020B461446E000F860F868EA
:103BF80040EA5370F860DB00BB60D7E902344FEA53
:103C0800441B4BEAD36B4FEA431ABAEB030A6BEB3C
:103C1800040B4FEA8B1646EA9A664FEA8A15B5EB0B
:103C28000A0566EB0B066D1846EB0206B3027B60CD
:103C38007B6843EA95537B60AB023B60D7E900564B
:103C480028463146FB6A4FF000041A462346FCF723
:103C580023FD03460C467B630B4B5B6803F4403340
:103C68001B0C01335B00BB627A6BBB6AB2FBF3F3DC
:103C78003B6302E0054B3B6300BF3B6B18463C3798
:103C8800BD46BDE8F08F00BF003802400024F400B4
:103C980000127A0080B400AF024B1B681846BD467C
:103CA80080BC70470800002080B500AFFFF7F2FF26
:103CB8000146054B9B6803F4E0539B0A034AD35C17
:103CC80021FA03F3184680BD003802403C5C000826
:103CD80080B500AFFFF7DEFF0146054B9B6803F494
:103CE80060435B0B034AD35C21FA03F3184680BD9B
:103CF800003802403C5C000880B582B000AF7860B4
:103D08007B68002B01D101231DE07B6893F83D30CF
:103D1800DBB2002B06D17B68002283F83C20786850
:103D280001F01AFD7B68022283F83D207B681A683F
:103D38007B6804331946104600F05EF97B6801225F
:103D480083F83D20002318460837BD4680BD00BFD4
:103D580080B485B000AF78607B681B687A681268A9
:103D6800D26842F00102DA607B681B689B6803F046
:103D78000703FB60FB68062B07D07B681B687A6823
:103D88001268126842F001021A60002318461437BC
:103D9800BD4680BC704700BF80B582B000AF786078
:103DA8007B681B681B6903F00203002B22D07B6829
:103DB8001B68DB6803F00203002B1BD07B681B68C1
:103DC8006FF002021A617B6801221A777B681B6810
:103DD8009B6903F00303002B03D0786800F0EEF82A
:103DE80005E0786800F0E0F8786800F0F1F87B68A2
:103DF80000221A777B681B681B6903F00403002BF9
:103E080022D07B681B68DB6803F00403002B1BD0FF
:103E18007B681B686FF004021A617B6802221A77BC
:103E28007B681B689B6903F44073002B03D0786898
:103E380000F0C4F805E0786800F0B6F8786800F09B
:103E4800C7F87B6800221A777B681B681B6903F038
:103E58000803002B22D07B681B68DB6803F008038B
:103E6800002B1BD07B681B686FF008021A617B6807
:103E780004221A777B681B68DB6903F00303002BB5
:103E880003D0786800F09AF805E0786800F08CF8BC
:103E9800786800F09DF87B6800221A777B681B68B9
:103EA8001B6903F01003002B22D07B681B68DB68BA
:103EB80003F01003002B1BD07B681B686FF0100207
:103EC8001A617B6808221A777B681B68DB6903F430
:103ED8004073002B03D0786800F070F805E078682C
:103EE80000F062F8786800F073F87B6800221A77AF
:103EF8007B681B681B6903F00103002B0ED07B68ED
:103F08001B68DB6803F00103002B07D07B681B6884
:103F18006FF001021A61786801F0AAF87B681B68E3
:103F28001B6903F08003002B0ED07B681B68DB68DD
:103F380003F08003002B07D07B681B686FF08002BA
:103F48001A61786800F07AF97B681B681B6903F0CE
:103F58004003002B0ED07B681B68DB6803F040032E
:103F6800002B07D07B681B686FF040021A617868E5
:103F780000F038F87B681B681B6903F02003002BEE
:103F88000ED07B681B68DB6803F02003002B07D08A
:103F98007B681B686FF020021A61786800F044F9AA
:103FA80000BF0837BD4680BD80B483B000AF7860DD
:103FB80000BF0C37BD4680BC704700BF80B483B0DB
:103FC80000AF786000BF0C37BD4680BC704700BFAB
:103FD80080B483B000AF786000BF0C37BD4680BCAA
:103FE800704700BF80B483B000AF786000BF0C3763
:103FF800BD4680BC704700BF80B485B000AF786014
:1040080039607B681B68FB607B683F4A934213D02A
:104018007B68B3F1804F0FD07B683C4A93420BD04A
:104028007B683B4A934207D07B683A4A934203D065
:104038007B68394A934208D1FB6823F07003FB6020
:104048003B685B68FA681343FB607B682E4A9342BF
:104058002BD07B68B3F1804F27D07B682B4A9342E3
:1040680023D07B682A4A93421FD07B68294A93420F
:104078001BD07B68284A934217D07B68274A934213
:1040880013D07B68264A93420FD07B68254A934217
:104098000BD07B68244A934207D07B68234A93421B
:1040A80003D07B68224A934208D1FB6823F440730B
:1040B800FB603B68DB68FA681343FB60FB6823F02E
:1040C80080023B685B691343FB607B68FA681A608F
:1040D8003B689A687B68DA623B681A687B689A6210
:1040E8007B68094A934203D07B680B4A934203D109
:1040F8003B681A697B681A637B6801225A6100BFB2
:104108001437BD4680BC70470000014000040040E1
:1041180000080040000C004000040140004001403D
:10412800004401400048014000180040001C0040C5
:104138000020004080B485B000AF786039607B68AB
:1041480093F83C30012B01D102235AE07B6801220D
:1041580083F83C207B68022283F83D207B681B683B
:104168005B68FB607B681B689B68BB60FB6823F02F
:104178007003FB603B681B68FA681343FB607B684D
:104188001B68FA685A607B681B68204A934222D0F1
:104198007B681B68B3F1804F1DD07B681B681C4A85
:1041A800934218D07B681B681A4A934213D07B68E5
:1041B8001B68194A93420ED07B681B68174A9342C2
:1041C80009D07B681B68164A934204D07B681B6839
:1041D800144A93420CD1BB6823F08003BB603B6850
:1041E8005B68BA681343BB607B681B68BA689A60EF
:1041F8007B68012283F83D207B68002283F83C20FD
:10420800002318461437BD4680BC704700000140A3
:104218000004004000080040000C00400004014079
:10422800004001400018004080B483B000AF7860BF
:1042380000BF0C37BD4680BC704700BF80B483B058
:1042480000AF786000BF0C37BD4680BC704700BF28
:1042580080B582B000AF78607B68002B01D1012364
:104268003FE07B6893F83930DBB2002B06D17B68DE
:10427800002283F83820786801F096FA7B682422B7
:1042880083F839207B681B687A681268D26822F440
:104298000052DA60786800F06BFB7B681B687A680C
:1042A8001268126922F490421A617B681B687A6866
:1042B8001268526922F02A025A617B681B687A6880
:1042C8001268D26842F40052DA607B680022DA632E
:1042D8007B68202283F839207B68202283F83A20E3
:1042E800002318460837BD4680BD00BF80B586B09C
:1042F80000AFF860B9601346FB80FB6893F839306B
:10430800DBB2202B53D1BB68002B02D0FB88002BDB
:1043180001D101234CE0FB6893F83830012B01D11F
:10432800022345E0FB68012283F83820BA68FB685D
:104338001A62FB68FA889A84FB68FA88DA84FB6850
:104348000022DA63FB68212283F83920FB681B6BA3
:10435800194ADA63FB681B6B184A1A64FB681B6B03
:10436800174ADA64FB681B6B00221A6507F1080319
:104378007B61FB68186B7B691968FB681B680433F1
:104388001A46FB88FDF744FCFB681B686FF0400287
:104398001A60FB68002283F83820FB681B68FA68FB
:1043A8001268526942F080025A61002300E0022339
:1043B80018461837BD4680BD094600085D46000806
:1043C8007946000880B588B000AF78607B681B68C4
:1043D8001B68FB617B681B68DB68BB617B681B68CB
:1043E8005B697B6100233B610023FB60FB6903F091
:1043F8000F033B613B69002B0DD1FB6903F02003E0
:10440800002B08D0BB6903F02003002B03D0786889
:1044180000F02CFAD1E03B69002B00F0B0807B69FA
:1044280003F00103002B05D1BB6903F49073002B43
:1044380000F0A580FB6903F00103002B0AD0BB69DB
:1044480003F48073002B05D07B68DB6B43F001021B
:104458007B68DA63FB6903F00403002B0AD07B69ED
:1044680003F00103002B05D07B68DB6B43F00202ED
:104478007B68DA63FB6903F00203002B0AD07B69CF
:1044880003F00103002B05D07B68DB6B43F00402CB
:104498007B68DA63FB6903F00803002B0FD0BB6964
:1044A80003F02003002B04D17B6903F00103002BE8
:1044B80005D07B68DB6B43F008027B68DA637B68B6
:1044C800DB6B002B78D0FB6903F02003002B07D0AF
:1044D800BB6903F02003002B02D0786800F0C6F90E
:1044E8007B681B685B6903F04003002B14BF012342
:1044F8000023DBB2FB607B68DB6B03F00803002B57
:1045080002D1FB68002B31D0786800F011F97B6884
:104518001B685B6903F04003002B23D07B681B6892
:104528007A681268526922F040025A617B685B6BB4
:10453800002B13D07B685B6B214A1A657B685B6B29
:104548001846FDF7BDFB0346002B16D07B685B6B56
:104558001B6D7A68526B104698470EE0786800F039
:1045680045F80AE0786800F041F806E0786800F05D
:104578003DF87B680022DA631EE000BF1CE0FB699F
:1045880003F08003002B08D0BB6903F08003002BE5
:1045980003D0786800F0FEF80FE0FB6903F04003F1
:1045A800002B0AD0BB6903F04003002B05D07868C4
:1045B80000F044F900BF00E000BF2037BD4680BDD1
:1045C8007547000880B483B000AF786000BF0C372F
:1045D800BD4680BC704700BF80B483B000AF786030
:1045E80000BF0C37BD4680BC704700BF80B483B0A5
:1045F80000AF786000BF0C37BD4680BC704700BF75
:1046080080B584B000AF78607B689B6BFB607B688B
:104618001B681B6803F48073002B13D1FB6800220E
:10462800DA84FB681B68FA681268526922F0800213
:104638005A61FB681B68FA681268D26842F0400247
:10464800DA6002E0F86800F021FD00BF1037BD46CF
:1046580080BD00BF80B584B000AF78607B689B6B7D
:10466800FB60F868FFF7AEFF00BF1037BD4680BD9E
:1046780080B584B000AF78600023FB607B689B6BDB
:10468800BB60BB681B685B6903F08003002B14BF29
:1046980001230023DBB2FB60BB6893F83930DBB23F
:1046A800212B08D1FB68002B05D0BB680022DA84D7
:1046B800B86800F027F8BB681B685B6903F0400323
:1046C800002B14BF01230023DBB2FB60BB6893F807
:1046D8003A30DBB2222B08D1FB68002B05D0BB682F
:1046E8000022DA85B86800F023F8BB68DB6B43F07A
:1046F8001002BB68DA63B868FFF778FF00BF1037AD
:10470800BD4680BD80B483B000AF78607B681B680D
:104718007A681268D26822F0C002DA607B682022C8
:1047280083F8392000BF0C37BD4680BC704700BFF6
:1047380080B483B000AF78607B681B687A681268C1
:10474800D26822F49072DA607B681B687A68126813
:10475800526922F001025A617B68202283F83A20CC
:1047680000BF0C37BD4680BC704700BF80B584B021
:1047780000AF78607B689B6BFB60FB680022DA8582
:10478800FB680022DA84F868FFF730FF00BF1037B3
:10479800BD4680BD80B485B000AF78607B6893F873
:1047A8003930DBB2212B43D17B689B68B3F5805F3E
:1047B80019D17B681B6AFB607B681B68FA681288E2
:1047C800C2F308025A607B681B69002B05D17B681D
:1047D8001B6A9A1C7B681A620EE07B681B6A5A1C6B
:1047E8007B681A6208E07B681A687B681B6A581C39
:1047F800796808621B7853607B68DB8C9BB2013B4D
:104808009BB27A681946D184002B0FD17B681B684C
:104818007A681268D26822F08002DA607B681B68C6
:104828007A681268D26842F04002DA60002300E039
:10483800022318461437BD4680BC704780B582B045
:1048480000AF78607B681B687A681268D26822F0CB
:104858004002DA607B68202283F83920786800F00B
:1048680015FC002318460837BD4680BD80B584B0C6
:1048780000AF78607B6893F83A30DBB2222B71D1B5
:104888007B689B68B3F5805F23D17B689B6AFB607C
:104898007B681B69002B0ED17B681B685B689BB229
:1048A800C3F308039AB2FB681A807B689B6A9A1C58
:1048B8007B689A6229E07B681B685B689BB2DBB205
:1048C8009AB2FB681A807B689B6A5A1C7B689A625A
:1048D8001BE07B681B69002B0AD17B689B6A591C0B
:1048E8007A6891627A6812685268D2B21A700CE0DB
:1048F8007B689B6A591C7A6891627A681268526868
:10490800D2B202F07F02D2B21A707B68DB8D9BB202
:10491800013B9BB27A681946D185002B20D17B6870
:104928001B687A681268D26822F02002DA607B6815
:104938001B687A681268D26822F48072DA607B6831
:104948001B687A681268526922F001025A617B6812
:10495800202283F83A207868FFF73EFE002302E021
:10496800002300E0022318461037BD4680BD00BF73
:104978002DE9F04FA3B000AFF867FB6F1968FB6F24
:104988001B681B6923F44052FB6FDB6813430B6100
:10499800FB6F9A68FB6F1B691A43FB6F5B691A43CD
:1049A800FB6FDB691343C7F88430FB6F1968FB6F33
:1049B8001B68DB6823F4164222F00C02D7F8843017
:1049C8001343CB60FB6F1968FB6F1B685B6923F4AB
:1049D8004072FB6F9B6913434B61FB6FDB69B3F557
:1049E800004F40F07181FB6F1B68B44A934205D0B9
:1049F800FB6F1B68B24A934240F0B180FFF768F939
:104A0800C7F88000FB6F1D68D7F8803019464FF053
:104A180000020B461446DB1844EB04045B1844EB15
:104A28000204E0007864786C40EA53707864DB0034
:104A38003B64D7E9103413EB010844EB0209404604
:104A48004946FB6F5B684FF00004DB1844EB040435
:104A58001A462346FBF720FE03460C461A46994B96
:104A6800A3FB02235B091E01D7F8803019464FF0DB
:104A780000020B461446DB1844EB04045B1844EBB5
:104A88000204E000F863F86B40EA5370F863DB0057
:104A9800BB63D7E90E3413EB010844EB0209404627
:104AA8004946FB6F5B684FF00004DB1844EB0404D5
:104AB8001A462346FBF7F0FD03460C461A46814B7F
:104AC800A3FB02135B09642101FB03F3D31ADB0088
:104AD80032337C4AA2FB03235B095B0003F4F873BF
:104AE8001E44D7F8803019464FF000020B46144692
:104AF800DB1844EB04045B1844EB0204E000786321
:104B0800786B40EA53707863DB003B63D7E90C3479
:104B180013EB010844EB020940464946FB6F5B680A
:104B28004FF00004DB1844EB04041A462346FBF755
:104B3800B3FD03460C461A46624BA3FB02135B09FE
:104B4800642101FB03F3D31ADB0032335D4AA2FB75
:104B580003235B0903F007033344AB6040E2FFF72C
:104B6800A3F8C7F88000FB6F1A683A67D7F8803057
:104B780019464FF000020B461446DB1844EB0404B8
:104B88005B1844EB0204E000F862F86A40EA5370EC
:104B9800F862DB00BB62D7E90A345D1844EB020611
:104BA80028463146FB6F5B684FF00004DB1844EB86
:104BB80004041A462346FBF76FFD03460C461A46C3
:104BC800404BA3FB02235B091E01D7F8803019462E
:104BD8004FF000020B461446DB1844EB04045B1844
:104BE80044EB02044FEAC40B4BEA537B4FEAC30A77
:104BF80053465C4613EB010A44EB020B50465946F8
:104C0800FB6F5B684FF00004DB1844EB04041A46A2
:104C18002346FBF741FD03460C461A46294BA3FBE6
:104C280002135B09642101FB03F3D31ADB0032335F
:104C3800244AA2FB03235B095B0003F4F8731E44B8
:104C4800D7F8803019464FF000020B461446DB189F
:104C580044EB04045B1844EB02044FEAC40949EA34
:104C680053794FEAC30843464C4613EB010844EB1B
:104C7800020940464946FB6F5B684FF00004DB18A9
:104C880044EB04041A462346FBF706FD03460C468C
:104C98001A460C4BA3FB02135B09642101FB03F3C7
:104CA800D31ADB003233074AA2FB03235B0903F064
:104CB800070333443A6F936092E100BF001001404C
:104CC800001401401F85EB51FB6F1A68C14B9A42D3
:104CD80005D0FB6F1A68C04B9A4240F0BF80FEF7C0
:104CE800F7FFC7F88000FB6F1E68D7F880301946B9
:104CF8004FF000020B461446DB1844EB04045B1823
:104D080044EB0204E0007862786A40EA5370786203
:104D1800DB003B62D7E9083413EB010844EB0209D6
:104D280040464946FB6F5B684FF00004A200FA65F5
:104D3800FA6D42EA9372FA659B00BB65D7E91623C0
:104D4800FBF7AAFC03460C461A46A44BA3FB022316
:104D58005B091D01D7F8803019464FF000020B4659
:104D68001446DB1844EB04045B1844EB0204E0002F
:104D7800F861F86940EA5370F861DB00BB61D7E974
:104D8800063413EB010844EB020940464946FB6F21
:104D98005B684FF00004A2007A657A6D42EA93726C
:104DA8007A659B003B65D7E91423FBF775FC03463E
:104DB8000C461A46894BA3FB02135B09642101FBCD
:104DC80003F3D31A1B013233844AA2FB03235B0982
:104DD80003F0F0031D44D7F8803019464FF0000265
:104DE8000B461446DB1844EB04045B1844EB02043E
:104DF800E0007861786940EA53707861DB003B61D4
:104E0800D7E9043413EB010844EB0209404649464C
:104E1800FB6F5B684FF00004A200FA64FA6C42EA88
:104E28009372FA649B00BB64D7E91223FBF734FC46
:104E380003460C461A46694BA3FB02135B0964211F
:104E480001FB03F3D31A1B013233644AA2FB032389
:104E58005B0903F00F032B44B360C1E0FEF724FFA6
:104E6800C7F88000FB6F1B68BB65D7F88030194610
:104E78004FF000020B461446DB1844EB04045B18A1
:104E880044EB0204E60046EA5376DD002B4634463E
:104E98005D1844EB020628463146FB6F5B684FF00D
:104EA8000004A5007D677D6F45EA93757D679C00CA
:104EB8003C67D7E91C23FBF7EFFB03460C461A4671
:104EC800464BA3FB02135B091D01D7F88030194636
:104ED8004FF000020B461446DB1844EB04045B1841
:104EE80044EB0204E000F860F86840EA5370F860A8
:104EF800D800B860D7E9023413EB010844EB020983
:104F080040464946FB6F5B684FF00004A600FE660A
:104F1800FE6E46EA9376FE669C00BC66D7E91A23C5
:104F2800FBF7BAFB03460C461A462C4BA3FB0213AD
:104F38005B09642101FB03F3D31A1B013233274AAF
:104F4800A2FB03135B0903F0F0031D44D7F880307C
:104F580019464FF000020B461446DB1844EB0404D4
:104F68005B1844EB0204E0007860786840EA53700C
:104F78007860D8003860D7E9003413EB010844EBB7
:104F8800020940464946FB6F5B684FF00004A600E3
:104F98007E667E6E46EA93767E669C003C66D7E91E
:104FA8001823FBF779FB03460C461A460B4BA3FB69
:104FB80002135B09642101FB03F3D31A1B0132338B
:104FC800064AA2FB03135B0903F00F032B44BA6DD7
:104FD800936005E000100140001401401F85EB516B
:104FE80000BF8C37BD46BDE8F08F00BF80B586B0E6
:104FF80000AF3B4600221A605A609A60DA601A6174
:105008004FF410733B6011237B600123BB600323C3
:10501800FB603B4619461548FDF7DAF801224FF4C4
:1050280000711248FDF76EFA0023FB7512E00122A9
:1050380040210E48FDF766FA0A20FCF70DFC002215
:1050480040210A48FDF75EFA0A20FCF705FCFB7DC3
:105058000133FB75FB7D082BE9D901224021034868
:10506800FDF750FA00BF1837BD4680BD0004024066
:1050780080B483B000AF7860034B01221A7000BF80
:105088000C37BD4680BC7047747F002080B483B065
:1050980000AF7860034B00221A7000BF0C37BD4682
:1050A80080BC7047757F002080B586B000AF7860FF
:1050B8003960324B1B687B61304A7B6943F20601D9
:1050C80001FB03F3134408331B883B617B68002B07
:1050D8004FD03B68002B4CD03B69B3F5806F3BD277
:1050E8003A6913465B0013449B007A6943F2060150
:1050F80001FB02F21344214A13440A330622796859
:105108001846FBF755FC3A6913465B0013449B00AD
:105118007A6943F2060101FB02F21344174A134469
:105128001033062239681846FBF742FC134A7B699C
:1051380043F2060101FB03F3134408331B880133D0
:1051480098B20E4A7B6943F2060101FB03F313444C
:10515800083302461A800CE0EFF31083BB60BB688B
:10516800FB6072B6064B01221A70FB68002B00D157
:1051780062B600BF1837BD4680BD00BF6407002077
:10518800747F002080B58CB000AF7860002387F86A
:105198002F30012387F82E307B681B68BB627A6842
:1051A800BB6A43F2060101FB03F313441A7A5B7AE4
:1051B8001B021343FB8400233B620023FB83544BF5
:1051C8001B78DBB283F00103DBB2002B00F0978081
:1051D800FB8C002B00F09380EFF310837B617B69DD
:1051E800BB6172B67B681B685A1C7B681A607B6857
:1051F8001B68012B08D97B6800221A7000225A709C
:1052080000229A700022DA70BB69002B00D162B6C6
:105218007A68BB6A43F2060101FB03F313440022D8
:1052280042F055021A71002262F055025A717A68EA
:10523800BB6A43F2060101FB03F31344002242F068
:1052480055029A71002262F05502DA71FA8C1346FF
:105258005B0013449B0006333B623B6A0433B3F59F
:10526800C05F0CD8BB6A43F2060202FB03F37A68FC
:10527800134404333A6A19462648FBF799FB254A32
:105288003B6A1344A5221A703B6A0133214AA521BF
:10529800D1543B6A02331F4AA521D1543B6A0333D8
:1052A8001C4AA521D1543B6A9BB204339BB21A46CF
:1052B80018491948FFF71AF8034687F82E3097F867
:1052C8002E30002B1ED17A68BB6A43F2060101FB1F
:1052D80003F3134400221A7200225A72EFF3108368
:1052E800FB60FB683B6172B6094B01221A703B698F
:1052F800002B00D162B6012387F82F3002E001238A
:1053080087F82F3097F82F3018463037BD4680BDC4
:10531800757F002074670020C406002080B584B023
:1053280000AF0123FB730023BB73FCF727FA00F0DF
:1053380053F800F069F9FFF759FE00F065F900F03D
:1053480043F900F0B3F800F0DFF800F013F91C4956
:105358001C48FBF7BBFD0346FB73FB7B002B01D00E
:10536800012329E0FCF796F80346FB73FB7B002B2F
:1053780001D0012320E01448FEF7EAFC1348FCF7AB
:10538800A1F9134B1B78DBB2002BF7D01148FFF7BC
:10539800F9FE0346BB73BB7B002BEFD0EFF3108302
:1053A8007B607B68BB6072B6094B00221A70BB68D1
:1053B800002BE3D162B6E1E718461037BD4680BD41
:1053C800245C00083006002084060020B150000844
:1053D800747F00206407002080B594B000AF07F107
:1053E800200330220021184600F036FB07F10C0399
:1053F80000221A605A609A60DA601A610023BB6062
:10540800284A284B1B6C43F080531364254B1B6CB4
:1054180003F08053BB60BB6800237B60224A224BA9
:105428001B6843F4804313601F4B1B6803F48043DD
:105438007B607B6801233B624FF480337B620223ED
:10544800BB634FF48003FB6304233B64A8237B64A2
:105458000223BB640423FB6407F120031846FDF70D
:10546800EFFF0346002B01D000F002F90F23FB6089
:1054780002233B6100237B614FF4A053BB614FF4CF
:105488008053FB6107F10C0305211846FEF746FA25
:105498000346002B01D000F0EBF800BF5037BD46A3
:1054A80080BD00BF003802400070004080B500AFEA
:1054B800124B134A1A60114B124A5A600F4B0022C2
:1054C8009A600E4B0022DA600C4B4FF480421A614E
:1054D8000A4B00225A61094B00229A61074B0022AD
:1054E800DA61064B00221A620448FDF723F80346E6
:1054F800002B01D000F0BCF800BF80BD30060020B2
:1055080000540040A086010080B582B000AF3B4641
:1055180000221A605A60154B154A1A60134B4AF25A
:1055280010425A60114B00229A60104BC822DA6070
:105538000E4B00229A610D48FEF7DEFB0346002B56
:1055480001D000F095F800233B6000237B603B46C8
:1055580019460648FEF7EEFD0346002B01D000F081
:1055680087F800BF0837BD4680BD00BF840600200D
:105578000010004080B500AF114B124A1A60104B62
:105588004FF4E1325A600E4B00229A600C4B002215
:10559800DA600B4B00221A61094B0C225A61084B46
:1055A80000229A61064B0022DA610548FEF750FE98
:1055B8000346002B01D000F05BF800BF80BD00BFA0
:1055C800C40600200048004080B582B000AF002328
:1055D8007B600C4A0B4B1B6B43F400131363094BA2
:1055E8001B6B03F400137B607B68002200210E20F4
:1055F800FCF72AFA0E20FCF743FA00BF0837BD462D
:1056080080BD00BF0038024080B485B000AF0023E1
:10561800FB60164A154B1B6B43F080031363134B57
:105628001B6B03F08003FB60FB680023BB600F4A21
:105638000E4B1B6B43F0080313630C4B1B6B03F0FF
:105648000803BB60BB6800237B60084A074B1B6BE1
:1056580043F002031363054B1B6B03F002037B60EB
:105668007B6800BF1437BD4680BC704700380240D5
:1056780080B400AF00BFBD4680BC704780B483B023
:1056880000AF00237B600F4A0E4B5B6C43F48043F2
:1056980053640C4B5B6C03F480437B607B68002392
:1056A8003B60084A074B1B6C43F080531364054B5F
:1056B8001B6C03F080533B603B6800BF0C37BD4652
:1056C80080BC70470038024080B58AB000AF78606F
:1056D80007F1140300221A605A609A60DA601A61AE
:1056E8007B681B68194A93422CD100233B61184AF6
:1056F800174B1B6B43F002031363154B1B6B03F033
:1057080002033B613B694FF410737B611223BB6159
:105718000123FB6103233B6204237B6207F114032B
:1057280019460C48FCF754FD0023FB60084A084B57
:105738001B6C43F400131364054B1B6C03F4001338
:10574800FB60FB6800BF2837BD4680BD00540040A1
:10575800003802400004024080B584B000AF786091
:105768007B681B680E4A934215D10023FB600D4AE3
:105778000C4B1B6C43F0100313640A4B1B6C03F0B7
:105788001003FB60FB68002200213620FCF75CF95F
:105798003620FCF775F900BF1037BD4680BD00BF45
:1057A800001000400038024080B58AB000AF786031
:1057B80007F1140300221A605A609A60DA601A61CD
:1057C8007B681B68394A93426BD100233B61384A96
:1057D800374B1B6C43F480231364354B1B6C03F469
:1057E80080233B613B690023FB60314A304B1B6BD4
:1057F80043F0080313632E4B1B6B03F00803FB6095
:10580800FB684FF440737B610223BB610023FB619B
:1058180003233B6207237B6207F1140319462548DB
:10582800FCF7D6FC244B254A1A60234B4FF0006244
:105838005A60214B40229A601F4B0022DA601E4BAF
:105848004FF480621A611C4B00225A611A4B0022E5
:105858009A61194B0022DA61174B00221A62164B23
:1058680004225A62144B03229A62134B0022DA6212
:10587800114B00221A631048FCF71CF90346002B51
:1058880001D0FFF7F5FE7B680B4A1A630A4A7B686A
:105898009363002200212720FCF7D6F82720FCF785
:1058A800EFF800BF2837BD4680BD00BF0048004064
:1058B80000380240000C02400407002058600240F3
:1058C80080B400AF00BFBD4680BC704780B400AF55
:1058D800FEE700BF80B400AFFEE700BF80B400AFB2
:1058E800FEE700BF80B400AFFEE700BF80B400AFA2
:1058F80000BFBD4680BC704780B400AF00BFBD4646
:1059080080BC704780B400AF00BFBD4680BC704704
:1059180080B500AFFBF784FF00BF80BD80B500AF46
:105928000248FCF7EFF900BF80BD00BF0407002064
:1059380080B500AF0248FEF745FD00BF80BD00BF3F
:10594800C406002080B500AF0248FEF725FA00BF64
:1059580080BD00BF8406002080B400AF124A124BFD
:105968001B6843F0010313600F4B00229A600E4A34
:105978000D4B1B6823F0847323F4803313600A4BA8
:105988000A4A5A60084A084B1B6823F480231360AC
:10599800054B0022DA60064B4FF000629A6000BFA8
:1059A800BD4680BC704700BF00380240103000245C
:1059B80000ED00E0DFF834D0002103E00C4B5B5829
:1059C800435004310B480C4B42189A42F6D30B4A09
:1059D80002E0002342F8043B094B9A42F9D3FFF74F
:1059E800BBFF00F011F8FFF799FC70470000022098
:1059F8005C5C000800000020380400203804002007
:105A0800787F0020FEE7000070B50F4E0F4D761B23
:105A1800B61018BF002405D0013455F8043B984748
:105A2800A642F9D10A4E0B4D761B00F0D9F8B610F4
:105A380018BF002406D0013455F8043B9847A64205
:105A4800F9D170BD70BD00BF505C0008505C000803
:105A5800585C0008505C000870B4840746D0541E97
:105A6800002A41D0CDB2034602E0621EE4B31446D8
:105A780003F8015B9A07F8D1032C2ED9CDB245EA79
:105A880005250F2C45EA054519D903F110022646CC
:105A9800103E0F2E42F8105C42F80C5C42F8085C8D
:105AA80042F8045C02F11002F2D8A4F1100222F0CC
:105AB8000F0204F00F041032032C13440DD91E46B4
:105AC8002246043A032A46F8045BFAD8221F22F039
